{
  "contractName": "main",
  "abi": [
    {
      "inputs": [
        {
          "internalType": "uint256",
          "name": "fid",
          "type": "uint256"
        },
        {
          "internalType": "string",
          "name": "fname",
          "type": "string"
        },
        {
          "internalType": "string",
          "name": "femail",
          "type": "string"
        },
        {
          "internalType": "string",
          "name": "flocation",
          "type": "string"
        },
        {
          "internalType": "uint256",
          "name": "fphone",
          "type": "uint256"
        },
        {
          "internalType": "string",
          "name": "fpass",
          "type": "string"
        }
      ],
      "stateMutability": "nonpayable",
      "type": "constructor"
    },
    {
      "inputs": [],
      "name": "DistributorState",
      "outputs": [
        {
          "internalType": "enum main.State",
          "name": "",
          "type": "uint8"
        }
      ],
      "stateMutability": "view",
      "type": "function",
      "constant": true
    },
    {
      "inputs": [],
      "name": "RetailerState",
      "outputs": [
        {
          "internalType": "enum main.State",
          "name": "",
          "type": "uint8"
        }
      ],
      "stateMutability": "view",
      "type": "function",
      "constant": true
    },
    {
      "inputs": [],
      "name": "d",
      "outputs": [
        {
          "internalType": "uint256",
          "name": "d_id",
          "type": "uint256"
        },
        {
          "internalType": "string",
          "name": "d_name",
          "type": "string"
        },
        {
          "internalType": "string",
          "name": "d_email",
          "type": "string"
        },
        {
          "internalType": "uint256",
          "name": "d_phone",
          "type": "uint256"
        },
        {
          "internalType": "string",
          "name": "d_password",
          "type": "string"
        },
        {
          "internalType": "string",
          "name": "d_location",
          "type": "string"
        }
      ],
      "stateMutability": "view",
      "type": "function",
      "constant": true
    },
    {
      "inputs": [],
      "name": "description",
      "outputs": [
        {
          "internalType": "string",
          "name": "",
          "type": "string"
        }
      ],
      "stateMutability": "view",
      "type": "function",
      "constant": true
    },
    {
      "inputs": [],
      "name": "f",
      "outputs": [
        {
          "internalType": "uint256",
          "name": "f_id",
          "type": "uint256"
        },
        {
          "internalType": "string",
          "name": "f_name",
          "type": "string"
        },
        {
          "internalType": "string",
          "name": "f_email",
          "type": "string"
        },
        {
          "internalType": "uint256",
          "name": "f_phone",
          "type": "uint256"
        },
        {
          "internalType": "string",
          "name": "f_password",
          "type": "string"
        },
        {
          "internalType": "string",
          "name": "f_location",
          "type": "string"
        }
      ],
      "stateMutability": "view",
      "type": "function",
      "constant": true
    },
    {
      "inputs": [],
      "name": "farmerState",
      "outputs": [
        {
          "internalType": "enum main.State",
          "name": "",
          "type": "uint8"
        }
      ],
      "stateMutability": "view",
      "type": "function",
      "constant": true
    },
    {
      "inputs": [],
      "name": "p",
      "outputs": [
        {
          "internalType": "uint256",
          "name": "batch_id",
          "type": "uint256"
        },
        {
          "internalType": "string",
          "name": "productName",
          "type": "string"
        },
        {
          "internalType": "string",
          "name": "desc",
          "type": "string"
        },
        {
          "internalType": "string",
          "name": "productType",
          "type": "string"
        },
        {
          "internalType": "string",
          "name": "farmer",
          "type": "string"
        },
        {
          "internalType": "string",
          "name": "distributor",
          "type": "string"
        },
        {
          "internalType": "string",
          "name": "retailer",
          "type": "string"
        }
      ],
      "stateMutability": "view",
      "type": "function",
      "constant": true
    },
    {
      "inputs": [],
      "name": "product_name",
      "outputs": [
        {
          "internalType": "string",
          "name": "",
          "type": "string"
        }
      ],
      "stateMutability": "view",
      "type": "function",
      "constant": true
    },
    {
      "inputs": [],
      "name": "product_type",
      "outputs": [
        {
          "internalType": "string",
          "name": "",
          "type": "string"
        }
      ],
      "stateMutability": "view",
      "type": "function",
      "constant": true
    },
    {
      "inputs": [],
      "name": "r",
      "outputs": [
        {
          "internalType": "uint256",
          "name": "r_id",
          "type": "uint256"
        },
        {
          "internalType": "string",
          "name": "r_name",
          "type": "string"
        },
        {
          "internalType": "string",
          "name": "r_email",
          "type": "string"
        },
        {
          "internalType": "uint256",
          "name": "r_phone",
          "type": "uint256"
        },
        {
          "internalType": "string",
          "name": "r_password",
          "type": "string"
        },
        {
          "internalType": "string",
          "name": "r_location",
          "type": "string"
        }
      ],
      "stateMutability": "view",
      "type": "function",
      "constant": true
    },
    {
      "inputs": [
        {
          "internalType": "string",
          "name": "productname",
          "type": "string"
        },
        {
          "internalType": "string",
          "name": "producttype",
          "type": "string"
        },
        {
          "internalType": "string",
          "name": "descript",
          "type": "string"
        }
      ],
      "name": "cropRegistration",
      "outputs": [
        {
          "internalType": "string",
          "name": "",
          "type": "string"
        },
        {
          "internalType": "uint256",
          "name": "",
          "type": "uint256"
        },
        {
          "internalType": "string",
          "name": "",
          "type": "string"
        },
        {
          "internalType": "string",
          "name": "",
          "type": "string"
        },
        {
          "internalType": "string",
          "name": "",
          "type": "string"
        },
        {
          "internalType": "string",
          "name": "",
          "type": "string"
        }
      ],
      "stateMutability": "nonpayable",
      "type": "function"
    },
    {
      "inputs": [],
      "name": "addFarmertoProduct",
      "outputs": [
        {
          "internalType": "string",
          "name": "",
          "type": "string"
        }
      ],
      "stateMutability": "nonpayable",
      "type": "function"
    },
    {
      "inputs": [],
      "name": "soldtoDistrubutor",
      "outputs": [
        {
          "internalType": "string",
          "name": "",
          "type": "string"
        }
      ],
      "stateMutability": "nonpayable",
      "type": "function"
    },
    {
      "inputs": [
        {
          "internalType": "uint256",
          "name": "did",
          "type": "uint256"
        },
        {
          "internalType": "string",
          "name": "dname",
          "type": "string"
        },
        {
          "internalType": "string",
          "name": "demail",
          "type": "string"
        },
        {
          "internalType": "string",
          "name": "dlocation",
          "type": "string"
        },
        {
          "internalType": "uint256",
          "name": "dphone",
          "type": "uint256"
        },
        {
          "internalType": "string",
          "name": "dpassword",
          "type": "string"
        }
      ],
      "name": "distributorDetails",
      "outputs": [],
      "stateMutability": "nonpayable",
      "type": "function"
    },
    {
      "inputs": [
        {
          "internalType": "uint256",
          "name": "batchId",
          "type": "uint256"
        }
      ],
      "name": "distributorBatch",
      "outputs": [
        {
          "internalType": "string",
          "name": "",
          "type": "string"
        }
      ],
      "stateMutability": "nonpayable",
      "type": "function"
    },
    {
      "inputs": [],
      "name": "selltoRetailer",
      "outputs": [
        {
          "internalType": "string",
          "name": "",
          "type": "string"
        }
      ],
      "stateMutability": "nonpayable",
      "type": "function"
    },
    {
      "inputs": [
        {
          "internalType": "uint256",
          "name": "rid",
          "type": "uint256"
        },
        {
          "internalType": "string",
          "name": "rname",
          "type": "string"
        },
        {
          "internalType": "string",
          "name": "remail",
          "type": "string"
        },
        {
          "internalType": "string",
          "name": "rlocation",
          "type": "string"
        },
        {
          "internalType": "uint256",
          "name": "rphone",
          "type": "uint256"
        },
        {
          "internalType": "string",
          "name": "rpassword",
          "type": "string"
        }
      ],
      "name": "retailerDetails",
      "outputs": [],
      "stateMutability": "nonpayable",
      "type": "function"
    },
    {
      "inputs": [],
      "name": "productResult",
      "outputs": [
        {
          "internalType": "uint256",
          "name": "",
          "type": "uint256"
        },
        {
          "internalType": "string",
          "name": "",
          "type": "string"
        },
        {
          "internalType": "string",
          "name": "",
          "type": "string"
        },
        {
          "internalType": "string",
          "name": "",
          "type": "string"
        },
        {
          "internalType": "string",
          "name": "",
          "type": "string"
        },
        {
          "internalType": "string",
          "name": "",
          "type": "string"
        },
        {
          "internalType": "string",
          "name": "",
          "type": "string"
        }
      ],
      "stateMutability": "view",
      "type": "function",
      "constant": true
    }
  ],
  "bytecode": "0x60806040526000601960006101000a81548160ff021916908360028111156200002d576200002c62000134565b5b02179055506001601960016101000a81548160ff021916908360028111156200005b576200005a62000134565b5b02179055506001601960026101000a81548160ff0219169083600281111562000089576200008862000134565b5b02179055503480156200009b57600080fd5b506040516200300f3803806200300f8339818101604052810190620000c1919062000331565b8560008001819055508460006001019081620000de91906200068a565b508360006002019081620000f391906200068a565b5082600060050190816200010891906200068a565b508160006003018190555080600060040190816200012791906200068a565b5050505050505062000771565b7f4e487b7100000000000000000000000000000000000000000000000000000000600052602160045260246000fd5b6000604051905090565b600080fd5b600080fd5b6000819050919050565b6200018c8162000177565b81146200019857600080fd5b50565b600081519050620001ac8162000181565b92915050565b600080fd5b600080fd5b6000601f19601f8301169050919050565b7f4e487b7100000000000000000000000000000000000000000000000000000000600052604160045260246000fd5b6200020782620001bc565b810181811067ffffffffffffffff82111715620002295762000228620001cd565b5b80604052505050565b60006200023e62000163565b90506200024c8282620001fc565b919050565b600067ffffffffffffffff8211156200026f576200026e620001cd565b5b6200027a82620001bc565b9050602081019050919050565b60005b83811015620002a75780820151818401526020810190506200028a565b60008484015250505050565b6000620002ca620002c48462000251565b62000232565b905082815260208101848484011115620002e957620002e8620001b7565b5b620002f684828562000287565b509392505050565b600082601f830112620003165762000315620001b2565b5b815162000328848260208601620002b3565b91505092915050565b60008060008060008060c087890312156200035157620003506200016d565b5b60006200036189828a016200019b565b965050602087015167ffffffffffffffff81111562000385576200038462000172565b5b6200039389828a01620002fe565b955050604087015167ffffffffffffffff811115620003b757620003b662000172565b5b620003c589828a01620002fe565b945050606087015167ffffffffffffffff811115620003e957620003e862000172565b5b620003f789828a01620002fe565b93505060806200040a89828a016200019b565b92505060a087015167ffffffffffffffff8111156200042e576200042d62000172565b5b6200043c89828a01620002fe565b9150509295509295509295565b600081519050919050565b7f4e487b7100000000000000000000000000000000000000000000000000000000600052602260045260246000fd5b600060028204905060018216806200049c57607f821691505b602082108103620004b257620004b162000454565b5b50919050565b60008190508160005260206000209050919050565b60006020601f8301049050919050565b600082821b905092915050565b6000600883026200051c7fffffffffffffffffffffffffffffffffffffffffffffffffffffffffffffffff82620004dd565b620005288683620004dd565b95508019841693508086168417925050509392505050565b6000819050919050565b60006200056b620005656200055f8462000177565b62000540565b62000177565b9050919050565b6000819050919050565b62000587836200054a565b6200059f620005968262000572565b848454620004ea565b825550505050565b600090565b620005b6620005a7565b620005c38184846200057c565b505050565b5b81811015620005eb57620005df600082620005ac565b600181019050620005c9565b5050565b601f8211156200063a576200060481620004b8565b6200060f84620004cd565b810160208510156200061f578190505b620006376200062e85620004cd565b830182620005c8565b50505b505050565b600082821c905092915050565b60006200065f600019846008026200063f565b1980831691505092915050565b60006200067a83836200064c565b9150826002028217905092915050565b620006958262000449565b67ffffffffffffffff811115620006b157620006b0620001cd565b5b620006bd825462000483565b620006ca828285620005ef565b600060209050601f831160018114620007025760008415620006ed578287015190505b620006f985826200066c565b86555062000769565b601f1984166200071286620004b8565b60005b828110156200073c5784890151825560018201915060208501945060208101905062000715565b868310156200075c578489015162000758601f8916826200064c565b8355505b6001600288020188555050505b505050505050565b61288e80620007816000396000f3fe608060405234801561001057600080fd5b50600436106101165760003560e01c80636dfcae65116100a25780639ae8886a116100715780639ae8886a146102c9578063a7787233146102ed578063b407d16f1461030b578063b47e72991461033b578063b9b3515d1461035957610116565b80636dfcae65146102505780637284e4161461026c5780637e0a81161461028a5780638a054ac2146102a657610116565b806329e503af116100e957806329e503af146101af5780634671d1d6146101cd57806347efe0d5146101eb5780636c2e15e3146102095780636c8ae38c1461022d57610116565b8063084fa1c81461011b5780630f751d691461013957806321f1d6c51461016e57806326121ff01461018c575b600080fd5b610123610377565b6040516101309190611bdb565b60405180910390f35b610153600480360381019061014e9190611d50565b61038a565b60405161016596959493929190611e8f565b60405180910390f35b6101766106b7565b6040516101839190611f13565b60405180910390f35b610194610794565b6040516101a696959493929190611f35565b60405180910390f35b6101b76109de565b6040516101c49190611f13565b60405180910390f35b6101d5610acc565b6040516101e29190611f13565b60405180910390f35b6101f3610b5a565b6040516102009190611bdb565b60405180910390f35b610211610b6d565b6040516102249796959493929190611fb2565b60405180910390f35b610235610efb565b60405161024796959493929190611f35565b60405180910390f35b61026a60048036038101906102659190612077565b611145565b005b6102746111d1565b6040516102819190611f13565b60405180910390f35b6102a4600480360381019061029f9190612077565b61125f565b005b6102ae6112eb565b6040516102c096959493929190611f35565b60405180910390f35b6102d1611535565b6040516102e49796959493929190611fb2565b60405180910390f35b6102f5611895565b6040516103029190611f13565b60405180910390f35b61032560048036038101906103209190612174565b6119b1565b6040516103329190611f13565b60405180910390f35b610343611ac3565b6040516103509190611bdb565b60405180910390f35b610361611ad6565b60405161036e9190611f13565b60405180910390f35b601960019054906101000a900460ff1681565b6060600060608060608060008060010180546103a5906121d0565b80601f01602080910402602001604051908101604052809291908181526020018280546103d1906121d0565b801561041e5780601f106103f35761010080835404028352916020019161041e565b820191906000526020600020905b81548152906001019060200180831161040157829003601f168201915b50505050509050600080600301549050600080600501805461043f906121d0565b80601f016020809104026020016040519081016040528092919081815260200182805461046b906121d0565b80156104b85780601f1061048d576101008083540402835291602001916104b8565b820191906000526020600020905b81548152906001019060200180831161049b57829003601f168201915b505050505090508b601a90816104ce91906123ad565b508a601b90816104de91906123ad565b5089601c90816104ee91906123ad565b50828282601a601b601c828054610504906121d0565b80601f0160208091040260200160405190810160405280929190818152602001828054610530906121d0565b801561057d5780601f106105525761010080835404028352916020019161057d565b820191906000526020600020905b81548152906001019060200180831161056057829003601f168201915b50505050509250818054610590906121d0565b80601f01602080910402602001604051908101604052809291908181526020018280546105bc906121d0565b80156106095780601f106105de57610100808354040283529160200191610609565b820191906000526020600020905b8154815290600101906020018083116105ec57829003601f168201915b5050505050915080805461061c906121d0565b80601f0160208091040260200160405190810160405280929190818152602001828054610648906121d0565b80156106955780601f1061066a57610100808354040283529160200191610695565b820191906000526020600020905b81548152906001019060200180831161067857829003601f168201915b5050505050905098509850985098509850985050505093975093979195509350565b6060600060028111156106cd576106cc611b64565b5b601960009054906101000a900460ff1660028111156106ef576106ee611b64565b5b036107565760066001016012600501908161070a91906124aa565b506000601960016101000a81548160ff0219169083600281111561073157610730611b64565b5b02179055506040518060600160405280603381526020016127df603391399050610791565b6040517f08c379a000000000000000000000000000000000000000000000000000000000815260040161078890612604565b60405180910390fd5b90565b60008060000154908060010180546107ab906121d0565b80601f01602080910402602001604051908101604052809291908181526020018280546107d7906121d0565b80156108245780601f106107f957610100808354040283529160200191610824565b820191906000526020600020905b81548152906001019060200180831161080757829003601f168201915b505050505090806002018054610839906121d0565b80601f0160208091040260200160405190810160405280929190818152602001828054610865906121d0565b80156108b25780601f10610887576101008083540402835291602001916108b2565b820191906000526020600020905b81548152906001019060200180831161089557829003601f168201915b5050505050908060030154908060040180546108cd906121d0565b80601f01602080910402602001604051908101604052809291908181526020018280546108f9906121d0565b80156109465780601f1061091b57610100808354040283529160200191610946565b820191906000526020600020905b81548152906001019060200180831161092957829003601f168201915b50505050509080600501805461095b906121d0565b80601f0160208091040260200160405190810160405280929190818152602001828054610987906121d0565b80156109d45780601f106109a9576101008083540402835291602001916109d4565b820191906000526020600020905b8154815290600101906020018083116109b757829003601f168201915b5050505050905086565b6060600060028111156109f4576109f3611b64565b5b601960009054906101000a900460ff166002811115610a1657610a15611b64565b5b03610a8e57601a60126001019081610a2e91906124aa565b50601b60126003019081610a4291906124aa565b50601c60126002019081610a5691906124aa565b50600060010160126004019081610a6d91906124aa565b506040518060600160405280602a81526020016127b5602a91399050610ac9565b6040517f08c379a0000000000000000000000000000000000000000000000000000000008152600401610ac090612696565b60405180910390fd5b90565b601a8054610ad9906121d0565b80601f0160208091040260200160405190810160405280929190818152602001828054610b05906121d0565b8015610b525780601f10610b2757610100808354040283529160200191610b52565b820191906000526020600020905b815481529060010190602001808311610b3557829003601f168201915b505050505081565b601960009054906101000a900460ff1681565b6000606080606080606080601260000154601260010160126002016012600301601260040160126005016012600601858054610ba8906121d0565b80601f0160208091040260200160405190810160405280929190818152602001828054610bd4906121d0565b8015610c215780601f10610bf657610100808354040283529160200191610c21565b820191906000526020600020905b815481529060010190602001808311610c0457829003601f168201915b50505050509550848054610c34906121d0565b80601f0160208091040260200160405190810160405280929190818152602001828054610c60906121d0565b8015610cad5780601f10610c8257610100808354040283529160200191610cad565b820191906000526020600020905b815481529060010190602001808311610c9057829003601f168201915b50505050509450838054610cc0906121d0565b80601f0160208091040260200160405190810160405280929190818152602001828054610cec906121d0565b8015610d395780601f10610d0e57610100808354040283529160200191610d39565b820191906000526020600020905b815481529060010190602001808311610d1c57829003601f168201915b50505050509350828054610d4c906121d0565b80601f0160208091040260200160405190810160405280929190818152602001828054610d78906121d0565b8015610dc55780601f10610d9a57610100808354040283529160200191610dc5565b820191906000526020600020905b815481529060010190602001808311610da857829003601f168201915b50505050509250818054610dd8906121d0565b80601f0160208091040260200160405190810160405280929190818152602001828054610e04906121d0565b8015610e515780601f10610e2657610100808354040283529160200191610e51565b820191906000526020600020905b815481529060010190602001808311610e3457829003601f168201915b50505050509150808054610e64906121d0565b80601f0160208091040260200160405190810160405280929190818152602001828054610e90906121d0565b8015610edd5780601f10610eb257610100808354040283529160200191610edd565b820191906000526020600020905b815481529060010190602001808311610ec057829003601f168201915b50505050509050965096509650965096509650965090919293949596565b600c806000015490806001018054610f12906121d0565b80601f0160208091040260200160405190810160405280929190818152602001828054610f3e906121d0565b8015610f8b5780601f10610f6057610100808354040283529160200191610f8b565b820191906000526020600020905b815481529060010190602001808311610f6e57829003601f168201915b505050505090806002018054610fa0906121d0565b80601f0160208091040260200160405190810160405280929190818152602001828054610fcc906121d0565b80156110195780601f10610fee57610100808354040283529160200191611019565b820191906000526020600020905b815481529060010190602001808311610ffc57829003601f168201915b505050505090806003015490806004018054611034906121d0565b80601f0160208091040260200160405190810160405280929190818152602001828054611060906121d0565b80156110ad5780601f10611082576101008083540402835291602001916110ad565b820191906000526020600020905b81548152906001019060200180831161109057829003601f168201915b5050505050908060050180546110c2906121d0565b80601f01602080910402602001604051908101604052809291908181526020018280546110ee906121d0565b801561113b5780601f106111105761010080835404028352916020019161113b565b820191906000526020600020905b81548152906001019060200180831161111e57829003601f168201915b5050505050905086565b60008690506000869050600086905060008690506000869050600086905085600660000181905550846006600101908161117f91906123ad565b50836006600201908161119291906123ad565b5082600660050190816111a591906123ad565b508160066003018190555080600660040190816111c291906123ad565b50505050505050505050505050565b601c80546111de906121d0565b80601f016020809104026020016040519081016040528092919081815260200182805461120a906121d0565b80156112575780601f1061122c57610100808354040283529160200191611257565b820191906000526020600020905b81548152906001019060200180831161123a57829003601f168201915b505050505081565b60008690506000869050600086905060008690506000869050600086905085600c6000018190555084600c600101908161129991906123ad565b5083600c60020190816112ac91906123ad565b5082600c60050190816112bf91906123ad565b5081600c6003018190555080600c60040190816112dc91906123ad565b50505050505050505050505050565b6006806000015490806001018054611302906121d0565b80601f016020809104026020016040519081016040528092919081815260200182805461132e906121d0565b801561137b5780601f106113505761010080835404028352916020019161137b565b820191906000526020600020905b81548152906001019060200180831161135e57829003601f168201915b505050505090806002018054611390906121d0565b80601f01602080910402602001604051908101604052809291908181526020018280546113bc906121d0565b80156114095780601f106113de57610100808354040283529160200191611409565b820191906000526020600020905b8154815290600101906020018083116113ec57829003601f168201915b505050505090806003015490806004018054611424906121d0565b80601f0160208091040260200160405190810160405280929190818152602001828054611450906121d0565b801561149d5780601f106114725761010080835404028352916020019161149d565b820191906000526020600020905b81548152906001019060200180831161148057829003601f168201915b5050505050908060050180546114b2906121d0565b80601f01602080910402602001604051908101604052809291908181526020018280546114de906121d0565b801561152b5780601f106115005761010080835404028352916020019161152b565b820191906000526020600020905b81548152906001019060200180831161150e57829003601f168201915b5050505050905086565b601280600001549080600101805461154c906121d0565b80601f0160208091040260200160405190810160405280929190818152602001828054611578906121d0565b80156115c55780601f1061159a576101008083540402835291602001916115c5565b820191906000526020600020905b8154815290600101906020018083116115a857829003601f168201915b5050505050908060020180546115da906121d0565b80601f0160208091040260200160405190810160405280929190818152602001828054611606906121d0565b80156116535780601f1061162857610100808354040283529160200191611653565b820191906000526020600020905b81548152906001019060200180831161163657829003601f168201915b505050505090806003018054611668906121d0565b80601f0160208091040260200160405190810160405280929190818152602001828054611694906121d0565b80156116e15780601f106116b6576101008083540402835291602001916116e1565b820191906000526020600020905b8154815290600101906020018083116116c457829003601f168201915b5050505050908060040180546116f6906121d0565b80601f0160208091040260200160405190810160405280929190818152602001828054611722906121d0565b801561176f5780601f106117445761010080835404028352916020019161176f565b820191906000526020600020905b81548152906001019060200180831161175257829003601f168201915b505050505090806005018054611784906121d0565b80601f01602080910402602001604051908101604052809291908181526020018280546117b0906121d0565b80156117fd5780601f106117d2576101008083540402835291602001916117fd565b820191906000526020600020905b8154815290600101906020018083116117e057829003601f168201915b505050505090806006018054611812906121d0565b80601f016020809104026020016040519081016040528092919081815260200182805461183e906121d0565b801561188b5780601f106118605761010080835404028352916020019161188b565b820191906000526020600020905b81548152906001019060200180831161186e57829003601f168201915b5050505050905087565b60606002808111156118aa576118a9611b64565b5b601960019054906101000a900460ff1660028111156118cc576118cb611b64565b5b14801561190c5750600060028111156118e8576118e7611b64565b5b601960009054906101000a900460ff16600281111561190a57611909611b64565b5b145b1561197357600c6001016012600601908161192791906124aa565b506000601960026101000a81548160ff0219169083600281111561194e5761194d611b64565b5b02179055506040518060600160405280602481526020016128126024913990506119ae565b6040517f08c379a00000000000000000000000000000000000000000000000000000000081526004016119a590612728565b60405180910390fd5b90565b6060600060028111156119c7576119c6611b64565b5b601960019054906101000a900460ff1660028111156119e9576119e8611b64565b5b148015611a29575060006002811115611a0557611a04611b64565b5b601960009054906101000a900460ff166002811115611a2757611a26611b64565b5b145b15611a8357816012600001819055506002601960016101000a81548160ff02191690836002811115611a5e57611a5d611b64565b5b0217905550604051806060016040528060238152602001612836602391399050611abe565b6040517f08c379a0000000000000000000000000000000000000000000000000000000008152600401611ab590612794565b60405180910390fd5b919050565b601960029054906101000a900460ff1681565b601b8054611ae3906121d0565b80601f0160208091040260200160405190810160405280929190818152602001828054611b0f906121d0565b8015611b5c5780601f10611b3157610100808354040283529160200191611b5c565b820191906000526020600020905b815481529060010190602001808311611b3f57829003601f168201915b505050505081565b7f4e487b7100000000000000000000000000000000000000000000000000000000600052602160045260246000fd5b60038110611ba457611ba3611b64565b5b50565b6000819050611bb582611b93565b919050565b6000611bc582611ba7565b9050919050565b611bd581611bba565b82525050565b6000602082019050611bf06000830184611bcc565b92915050565b6000604051905090565b600080fd5b600080fd5b600080fd5b600080fd5b6000601f19601f8301169050919050565b7f4e487b7100000000000000000000000000000000000000000000000000000000600052604160045260246000fd5b611c5d82611c14565b810181811067ffffffffffffffff82111715611c7c57611c7b611c25565b5b80604052505050565b6000611c8f611bf6565b9050611c9b8282611c54565b919050565b600067ffffffffffffffff821115611cbb57611cba611c25565b5b611cc482611c14565b9050602081019050919050565b82818337600083830152505050565b6000611cf3611cee84611ca0565b611c85565b905082815260208101848484011115611d0f57611d0e611c0f565b5b611d1a848285611cd1565b509392505050565b600082601f830112611d3757611d36611c0a565b5b8135611d47848260208601611ce0565b91505092915050565b600080600060608486031215611d6957611d68611c00565b5b600084013567ffffffffffffffff811115611d8757611d86611c05565b5b611d9386828701611d22565b935050602084013567ffffffffffffffff811115611db457611db3611c05565b5b611dc086828701611d22565b925050604084013567ffffffffffffffff811115611de157611de0611c05565b5b611ded86828701611d22565b9150509250925092565b600081519050919050565b600082825260208201905092915050565b60005b83811015611e31578082015181840152602081019050611e16565b60008484015250505050565b6000611e4882611df7565b611e528185611e02565b9350611e62818560208601611e13565b611e6b81611c14565b840191505092915050565b6000819050919050565b611e8981611e76565b82525050565b600060c0820190508181036000830152611ea98189611e3d565b9050611eb86020830188611e80565b8181036040830152611eca8187611e3d565b90508181036060830152611ede8186611e3d565b90508181036080830152611ef28185611e3d565b905081810360a0830152611f068184611e3d565b9050979650505050505050565b60006020820190508181036000830152611f2d8184611e3d565b905092915050565b600060c082019050611f4a6000830189611e80565b8181036020830152611f5c8188611e3d565b90508181036040830152611f708187611e3d565b9050611f7f6060830186611e80565b8181036080830152611f918185611e3d565b905081810360a0830152611fa58184611e3d565b9050979650505050505050565b600060e082019050611fc7600083018a611e80565b8181036020830152611fd98189611e3d565b90508181036040830152611fed8188611e3d565b905081810360608301526120018187611e3d565b905081810360808301526120158186611e3d565b905081810360a08301526120298185611e3d565b905081810360c083015261203d8184611e3d565b905098975050505050505050565b61205481611e76565b811461205f57600080fd5b50565b6000813590506120718161204b565b92915050565b60008060008060008060c0878903121561209457612093611c00565b5b60006120a289828a01612062565b965050602087013567ffffffffffffffff8111156120c3576120c2611c05565b5b6120cf89828a01611d22565b955050604087013567ffffffffffffffff8111156120f0576120ef611c05565b5b6120fc89828a01611d22565b945050606087013567ffffffffffffffff81111561211d5761211c611c05565b5b61212989828a01611d22565b935050608061213a89828a01612062565b92505060a087013567ffffffffffffffff81111561215b5761215a611c05565b5b61216789828a01611d22565b9150509295509295509295565b60006020828403121561218a57612189611c00565b5b600061219884828501612062565b91505092915050565b7f4e487b7100000000000000000000000000000000000000000000000000000000600052602260045260246000fd5b600060028204905060018216806121e857607f821691505b6020821081036121fb576121fa6121a1565b5b50919050565b60008190508160005260206000209050919050565b60006020601f8301049050919050565b600082821b905092915050565b6000600883026122637fffffffffffffffffffffffffffffffffffffffffffffffffffffffffffffffff82612226565b61226d8683612226565b95508019841693508086168417925050509392505050565b6000819050919050565b60006122aa6122a56122a084611e76565b612285565b611e76565b9050919050565b6000819050919050565b6122c48361228f565b6122d86122d0826122b1565b848454612233565b825550505050565b600090565b6122ed6122e0565b6122f88184846122bb565b505050565b5b8181101561231c576123116000826122e5565b6001810190506122fe565b5050565b601f8211156123615761233281612201565b61233b84612216565b8101602085101561234a578190505b61235e61235685612216565b8301826122fd565b50505b505050565b600082821c905092915050565b600061238460001984600802612366565b1980831691505092915050565b600061239d8383612373565b9150826002028217905092915050565b6123b682611df7565b67ffffffffffffffff8111156123cf576123ce611c25565b5b6123d982546121d0565b6123e4828285612320565b600060209050601f8311600181146124175760008415612405578287015190505b61240f8582612391565b865550612477565b601f19841661242586612201565b60005b8281101561244d57848901518255600182019150602085019450602081019050612428565b8683101561246a5784890151612466601f891682612373565b8355505b6001600288020188555050505b505050505050565b60008154905061248e816121d0565b9050919050565b60008190508160005260206000209050919050565b8181036124b8575050612590565b6124c18261247f565b67ffffffffffffffff8111156124da576124d9611c25565b5b6124e482546121d0565b6124ef828285612320565b6000601f83116001811461251e576000841561250c578287015490505b6125168582612391565b865550612589565b601f19841661252c87612495565b965061253786612201565b60005b8281101561255f5784890154825560018201915060018501945060208101905061253a565b8683101561257c5784890154612578601f891682612373565b8355505b6001600288020188555050505b5050505050505b565b7f5472616e73616374696f6e206265747765656e206661726d657220616e64206460008201527f69737472696275746f72206e6f742068617070656e6564000000000000000000602082015250565b60006125ee603783611e02565b91506125f982612592565b604082019050919050565b6000602082019050818103600083015261261d816125e1565b9050919050565b7f536f6d657468696e672077656e742077726f6e6720696e204661726d6572277360008201527f2073746174650000000000000000000000000000000000000000000000000000602082015250565b6000612680602683611e02565b915061268b82612624565b604082019050919050565b600060208201905081810360008301526126af81612673565b9050919050565b7f5472616e73616374696f6e206265747765656e206469737472696275746f722060008201527f616e642072657461696c6572206e6f742068617070656e656400000000000000602082015250565b6000612712603983611e02565b915061271d826126b6565b604082019050919050565b6000602082019050818103600083015261274181612705565b9050919050565b7f4e6f742041737369676e65642042617463682049440000000000000000000000600082015250565b600061277e601583611e02565b915061278982612748565b602082019050919050565b600060208201905081810360008301526127ad81612771565b905091905056fe4661726d65722044657461696c73206172652055706461746564205375636365737366756c6c792121214661726d657220536f6c642070726f6475637420746f204469737472696275746f72205375636365737366756c6c79212121214469737472696275746f7220736f6c642070726f6475637420746f2072657461696c657242617463682049642069732061737369676e656420746f207468652070726f64756374a2646970667358221220c404d2d34248353a53da41ae08b56d9b04bd481e765af014647ee58b22eb12c464736f6c63430008110033",
  "immutableReferences": {},
  "source": "// SPDX-License-Identifier: GPL-3.0\r\n\r\npragma solidity 0.8.17;\r\n\r\n    struct farmer{\r\n        uint f_id;\r\n        string f_name;\r\n        string f_email;\r\n        uint f_phone;\r\n        string f_password;\r\n        string f_location;\r\n    }\r\n\r\n    struct distributor{\r\n        uint d_id;\r\n        string d_name;\r\n        string d_email;\r\n        uint d_phone;\r\n        string d_password;\r\n        string d_location;\r\n    }\r\n\r\n    struct retailer{\r\n        uint r_id;\r\n        string r_name;\r\n        string r_email;\r\n        uint r_phone;\r\n        string r_password;\r\n        string r_location;\r\n    }\r\n\r\n    struct product{\r\n        uint batch_id;\r\n        string productName;\r\n        string desc;\r\n        string productType;\r\n        string farmer;\r\n        string distributor;\r\n        string retailer;\r\n    }\r\n\r\ncontract main{\r\n\r\n    // mapping(address=>address[] ) famerAddress;\r\n    // mapping(address=>address[] ) distributerAddress;\r\n    // mapping(address=>address[] ) retailerAddress;\r\n\r\n    farmer public f;\r\n    distributor public d;\r\n    retailer public r;\r\n    product public p;\r\n\r\n// ---------------------------------------Farmer Section-----------------------------------//\r\n\r\n    constructor(uint fid, string memory fname, string memory femail,string memory flocation, uint fphone, string memory fpass){\r\n        f.f_id = fid;\r\n        f.f_name = fname;\r\n        f.f_email = femail;\r\n        f.f_location = flocation;\r\n        f.f_phone = fphone;\r\n        f.f_password = fpass;\r\n\r\n    }\r\n    enum State{allowed,not_allowed,wait}\r\n\r\n    State public farmerState = State.allowed;\r\n    State public DistributorState = State.not_allowed;\r\n    State public RetailerState = State.not_allowed;\r\n\r\n\r\n    string public product_name;\r\n    string public product_type;\r\n    string public description;\r\n\r\n    function cropRegistration(\r\n        string memory productname,\r\n        string memory producttype, \r\n        string memory descript\r\n        ) public returns(\r\n            string memory, \r\n            uint, \r\n            string memory, \r\n            string memory,\r\n            string memory, \r\n            string memory)\r\n            {\r\n\r\n            string memory farmername = f.f_name;\r\n            uint farmerphone = f.f_phone;   \r\n            string memory farmerlocation = f.f_location;\r\n            product_name = productname;\r\n            product_type = producttype;\r\n            description = descript; \r\n             \r\n            // if(farmerState == State.not_allowed){\r\n            //     farmerState = State.allowed;\r\n            // }\r\n            return (farmername, farmerphone, farmerlocation, product_name, product_type, description);        \r\n    }\r\n\r\n    function addFarmertoProduct() public returns(string memory){\r\n        if(farmerState == State.allowed){\r\n            p.productName = product_name;\r\n            p.productType = product_type;\r\n            p.desc = description;\r\n            p.farmer = f.f_name;\r\n            \r\n            return(\"Farmer Details are Updated Successfully!!!\");\r\n        }\r\n        else{\r\n            revert(\"Something went wrong in Farmer's state\");\r\n        }\r\n    }\r\n\r\n    function soldtoDistrubutor() public returns(string memory){\r\n        if(farmerState == State.allowed){\r\n            p.distributor = d.d_name;\r\n            DistributorState = State.allowed;\r\n            return(\"Farmer Sold product to Distributor Successfully!!!!\"); \r\n        }\r\n        else{\r\n            revert(\"Transaction between farmer and distributor not happened\");\r\n        }\r\n    }\r\n\r\n\r\n//-------------------------------Distributer Section------------------------//\r\n\r\n    function distributorDetails(uint did, string memory dname, string memory demail, string memory dlocation, uint dphone, string memory dpassword) public{\r\n        uint d_id = did;\r\n        string memory d_name = dname;\r\n        string memory d_email = demail;\r\n        string memory d_location = dlocation;\r\n        uint d_phone = dphone;\r\n        string memory d_password = dpassword;\r\n        d.d_id = d_id;\r\n        d.d_name = d_name;\r\n        d.d_email = d_email;\r\n        d.d_location = d_location;\r\n        d.d_phone = d_phone;\r\n        d.d_password = d_password;\r\n\r\n    }\r\n\r\n    function distributorBatch(uint batchId) public returns(string memory){\r\n        if(DistributorState == State.allowed && farmerState == State.allowed ){\r\n            p.batch_id = batchId;\r\n            DistributorState = State.wait;\r\n            return(\"Batch Id is assigned to the product\");    \r\n        }\r\n        else{\r\n            revert(\"Not Assigned Batch ID\");\r\n        }\r\n    }\r\n\r\n    function selltoRetailer() public returns(string memory){\r\n        if(DistributorState == State.wait && farmerState == State.allowed){\r\n            p.retailer = r.r_name;\r\n            RetailerState = State.allowed;\r\n            return(\"Distributor sold product to retailer\");\r\n        }\r\n        else{\r\n            revert(\"Transaction between distributor and retailer not happened\");\r\n        }\r\n    }\r\n    \r\n\r\n//---------------------------------------------------retailerDetails--------------------------------------//\r\n\r\n    function retailerDetails(uint rid, string memory rname, string memory remail, string memory rlocation, uint rphone, string memory rpassword) public{\r\n        uint r_id = rid;\r\n        string memory r_name = rname;\r\n        string memory r_email = remail;\r\n        string memory r_location = rlocation;\r\n        uint r_phone = rphone;\r\n        string memory r_password = rpassword;\r\n        r.r_id = r_id;\r\n        r.r_name = r_name;\r\n        r.r_email = r_email;\r\n        r.r_location = r_location;\r\n        r.r_phone = r_phone;\r\n        r.r_password = r_password;\r\n\r\n    }\r\n\r\n\r\n    \r\n    // function transactionBetweenFarmertoDistributor() public pure {\r\n       \r\n    // }\r\n    function productResult() public view returns(uint, string memory, string memory, string memory, string memory, string memory, string memory){\r\n        return(\r\n            p.batch_id,\r\n            p.productName,\r\n            p.desc,\r\n            p.productType,\r\n            p.farmer,\r\n            p.distributor,\r\n            p.retailer\r\n        );\r\n    }\r\n\r\n}",
  "sourcePath": "D:\\Code\\Blockchain\\flutter_Agri_Project\\web\\contracts\\main.sol",
  "compiler": {
    "name": "solc",
    "version": "0.8.17+commit.8df45f5f.Emscripten.clang"
  },
  "schemaVersion": "3.4.10",
  "updatedAt": "2022-10-28T06:27:08.173Z",
  "networkType": "ethereum",
  "devdoc": {
    "kind": "dev",
    "methods": {},
    "version": 1
  },
  "userdoc": {
    "kind": "user",
    "methods": {},
    "version": 1
  }
}